:020000040800F2
:1000000080060020AD030008ED030008EF030008A0
:10001000F3030008F7030008FB03000800000000DA
:10002000000000000000000000000000FF030008C6
:100030000104000800000000030400080504000893
:10004000C7030008C7030008C7030008C703000868
:10005000C7030008C7030008C7030008C703000858
:10006000C7030008C7030008C7030008C703000848
:10007000C7030008C7030008C7030008C703000838
:10008000C7030008C7030008C7030008C703000828
:10009000C7030008C7030008C7030008C703000818
:1000A000C7030008C7030008C7030008C703000808
:1000B000C7030008C7030008C7030008C7030008F8
:1000C000C7030008C7030008C7030008C7030008E8
:1000D000C7030008370A0008C7030008C703000861
:1000E000C7030008C7030008C7030008C7030008C8
:1000F000C7030008C7030008C7030008C7030008B8
:10010000C7030008C7030008C7030008C7030008A7
:10011000C7030008C7030008C7030008C703000897
:10012000C7030008C7030008C7030008C703000887
:1001300000F002F800F03AF80AA090E8000C8244BF
:100140008344AAF10107DA4501D100F02FF8AFF29C
:10015000090EBAE80F0013F0010F18BFFB1A43F0A5
:1001600001031847D81F0000F81F0000103A24BFF1
:1001700078C878C1FAD8520724BF30C830C144BF0C
:1001800004680C607047000000230024002500264E
:10019000103A28BF78C1FBD8520728BF30C148BFEA
:1001A0000B6070471FB51FBD10B510BD01F09EF963
:1001B0001146FFF7F7FF00F026F901F0BCF903B490
:1001C000FFF7F2FF03BC00F0DBFB00000CB50020E2
:1001D000019000906C48006840F480306A490860E3
:1001E00000BF6948006800F4003000900198401C8E
:1001F0000190009818B90198B0F5A06FF1D162484C
:10020000006800F4003010B10120009001E00020EF
:1002100000900098012843D15C48006840F010002D
:100220005A4908600846006820F003000860084644
:10023000006840F002000860534840685249486036
:100240000846406848600846406840F4806048605E
:100250000846406820F47C1048600846406840F436
:10026000E81048600846006840F08070086000BFF1
:100270004548006800F000700028F9D04248406806
:1002800020F00300404948600846406840F0020002
:10029000486000BF3C48406800F00C000828F9D1D5
:1002A0000CBD10B5FFF792FF10BD10B536480068C1
:1002B00040F001003449086008464068344908406D
:1002C0003149486008460068324908402E490860B4
:1002D0000846006820F4802008600846406820F442
:1002E000FE0048604FF41F008860FFF7DAFF4FF010
:1002F00000602949086010BD10B5002100200022CF
:10030000214B5B6803F00C0121B1042906D00829B8
:1003100028D107E0214B224C236027E01F4B204CC3
:10032000236023E0184B5B6803F47010164B5B6886
:1003300003F48032022303EB904022B9194B43436C
:10034000174C23600DE0104B5B6803F4003323B1BE
:10035000144B4343124C236003E0104B4343104CB7
:10036000236003E00D4B0E4C236000BF00BF064B23
:100370005B68C3F303130C4CE15C094B1B68CB4077
:10038000074C236010BD0000001002400020024016
:100390000000FFF8FFFFF6FE08ED00E000127A0013
:1003A0000000002000093D000400002009488047AB
:1003B00009480047FEE7FEE7FEE7FEE7FEE7FEE747
:1003C000FEE7FEE7FEE7FEE704480549054A064B5F
:1003D00070470000AB0200083101000880000020D7
:1003E000800600208002002080020020704700BFAD
:1003F000FEE700BFFEE700BFFEE700BFFEE7704775
:1004000070477047704700F0DFFB00F039F800F0EC
:10041000D7F800F021F900F083F84FF4165000F0FF
:10042000F9F900F0AFFA4FF4E13000F01BFB00F0F7
:1004300071FE4FF6E0733222BE21502000F098FF8B
:100440004FF4FC6332224FF49671502000F090FF7D
:1004500045F2584332228C21962000F089FF002378
:100460003222FA21962000F083FF4FF478433222A3
:100470004FF4B471962000F07BFF00BFFEE7000050
:100480004B48806940F04C00494988614948006800
:1004900020F47000474908600846006840F44010A6
:1004A00008600846006820F0706008600846006830
:1004B00040F0407008604048006820F470003E49F9
:1004C00008600846006840F4401008603B48006837
:1004D00020F47000394908600846006840F4401074
:1004E0000860704734480C30006820F02000324922
:1004F0000C31086031480C30006820F020002F4992
:100500000C3108602B480C30006820F0200029498D
:100510000C3108600846006820F040000860704711
:1005200025480C30006840F0200023490C31086059
:1005300022480C30006840F0200020490C3108604F
:100540001C480C30006840F020001A490C3108604B
:100550000846006840F040000860704710B524E08D
:10056000FFF7C0FF4FF47A7000F03CFBFFF7D8FFB5
:100570004FF47A7000F036FB0E480830006800F047
:10058000010088B10D480830006800F0040058B937
:100590000A480830006800F0080028B10748083011
:1005A000006800F0100000B900E0D9E700BF10BDFE
:1005B0000010024000080140000C014000180140FA
:1005C0002148806940F008001F4988611F48006881
:1005D00020F00F001D4908600846006840F0030045
:1005E0000860704710B52CE018480830006840F4E7
:1005F00080701649083108604FF47A7000F0F2FA02
:1006000012480830006820F48070104908310860F2
:100610004FF47A7000F0E6FA0D48006800F001002F
:1006200070B10C48006800F0040048B9094800683F
:1006300000F0080020B10748006800F0100000B981
:1006400000E0D1E700BF10BD00100240040C0140E3
:1006500008080140081801406A48806940F04400D9
:10066000684988616848006820F00F0066490860A2
:100670000846006840F0040008606448006820F400
:100680007060624908600846006840F48060086055
:100690000846006820F4704008600846006840F48E
:1006A000804008600846006820F470200860084612
:1006B000006840F480200860704710B55248083048
:1006C000006800F0010050B90A2000F08BFA4E4893
:1006D0000830006800F0010008B9012010BD4B4847
:1006E0000830006800F0040050B10A2000F07AFAE7
:1006F00046480830006800F0040008B10220EDE729
:1007000042480830006800F0080050B90A2000F0A4
:1007100069FA3E480830006800F0080008B9032074
:10072000DCE73A480830006800F0100050B90A20B1
:1007300000F058FA35480830006800F0100008B999
:100740000420CBE700BFC9E710B531480068012895
:100750003AD12D480830006800F0010088B12B48DC
:100760000830006800F0040058B9284808300068D4
:1007700000F0080028B125480830006800F010009B
:1007800010BB0A2000F02EFA1F480830006800F065
:10079000010008B9012010BD1C480830006800F0B5
:1007A000040008B10220F6E718480830006800F09D
:1007B000080008B90320EEE714480830006800F08C
:1007C0001000E0B90420E6E70F480830006800F0A8
:1007D0000100A0B10D480830006800F0040070B9B5
:1007E0000A480830006800F0080040B107480830A7
:1007F000006800F0100010B100200549086000BF3B
:10080000C9E7000000100240000801400018014044
:10081000140000202DE9F04704468B48806940F021
:100820000400894988618948006820F0F000874900
:1008300008600846006840F0B0000860084600689C
:1008400020F4706008600846006840F400600860AA
:100850007E480830006840F480607C4908310860B8
:100860007948806940F4804077498861200101F02F
:10087000CDFA80464146764801F0EAF90546284619
:1008800001F0A8FA0646304601F0C0FA8246294631
:1008900001F0D4FB81464FF0834101F003FB804619
:1008A00001F098FA074647EA06106A490880081DD1
:1008B000008820F48060091D08800846008840F008
:1008C000080008800846008840F0040008800846B8
:1008D000008820F0010008800846008840F400509D
:1008E0000880BDE8F08700BF5A490839098801F03F
:1008F00040010029F8D05749091F0880704700BF00
:1009000054490839098801F020010029F8D05149DB
:10091000091F0988C8B2704700B5024603E0107885
:10092000FFF7E1FF521C10780028F8D10D20FFF7E7
:10093000DAFF0A20FFF7D7FF00BD00B5024608E046
:10094000FFF7DDFF0A2801D00D2800D102E010706A
:10095000521CF5E700BF0021117000BD00B5024632
:100960000B46D0B2FFF7BFFF104600BD01464FF067
:10097000FF30704700B50246D0B2FFF7B4FF00BDAC
:1009800000BFFEE7F0B53348001D008840F02000AE
:100990003049091D0880052003462F4C21684FF679
:1009A000FF0421402D4C0C4344EA03212A4C2160D2
:1009B00000BF002303240146C1F10707042F01D91A
:1009C000042701E0C1F107073E460F1D072F01D2A2
:1009D000002700E0CF1E3D460127B7407F1E1F4085
:1009E000AF404FF0010C0CFA05FCACF1010C0CEA25
:1009F000040C47EA0C0200BF25211046002908DA42
:100A000003071D0E144B0C3301F00F04241F1D555A
:100A100003E003071C0E124B5C5400BF252000F0BE
:100A20001F030121994043099B0003F1E023C3F810
:100A3000001100BFF0BD00B50648001F0088C2B21B
:100A40001046FFF750FF00BD0010024004080140AF
:100A50004054894C083801400CED00E00000FA05D4
:100A600000E400E02DE9F04704465248806940F078
:100A70000400504988615048006820F470604E4975
:100A800008600846006840F4306008600846006866
:100A900020F4704008600846006840F40040086098
:100AA00045480C30006840F0080043490C310860AC
:100AB0004048C06940F400303E49C861200101F05F
:100AC000A5F9804641463D4801F0C2F80546284652
:100AD00001F080F90646304601F098F98246294631
:100AE00001F0ACFA81464FF0834101F0DBF980461A
:100AF00001F070F9074647EA061031490880081DE1
:100B0000008820F48060091D08802E48008840F08D
:100B100008002C4908802A48001D008840F0040085
:100B20002749091D08800846008820F00100088038
:100B30000846008840F400500880BDE8F08700BFF8
:100B40001F490839098801F040010029F8D01C49E3
:100B5000091F0880704700BF19490839098801F04A
:100B600020010029F8D01649091F0988C8B270472A
:100B700000B5024603E01078FFF7E1FF521C107841
:100B80000028F8D10D20FFF7DAFF0A20FFF7D7FF82
:100B900000BD00B5024608E0FFF7DDFF0A2801D0DE
:100BA0000D2800D102E01070521CF5E700BF0021B3
:100BB000117000BD00100240000801404054094C73
:100BC000084400400C3801404FF0E020006920F05C
:100BD00002004FF0E02108610846006920F004009F
:100BE000086170471D49098841434FF0E022516177
:100BF000002191611146096941F00101116100BFB5
:100C00004FF0E021096901F480310029F8D04FF05C
:100C1000E021096921F001014FF0E02211617047E4
:100C20000F49097841434FF0E02251610021916161
:100C30001146096941F00101116100BF4FF0E02147
:100C4000096901F480310029F8D04FF0E0210969E9
:100C500021F001014FF0E0221161704718000020DF
:100C60001A000020FD48806940F02000FB4988619F
:100C70000846806940F0400088610846806940F479
:100C8000807088610846806940F008008861F448F7
:100C9000006820F07F40F24908600846006840F094
:100CA0004C500860081F006820F0FF00091F086012
:100CB0000846006840F033000860EA48006820F009
:100CC0007040E84908600846006840F040500860FD
:100CD000081D00680020091D08600846006840F0F3
:100CE00033300860DE4800686FF30B00DC490860B1
:100CF0000846006840F233310843D9490860081FAC
:100D0000006820F47F00091F08600846006840F46E
:100D100088100860D2480830006840F03000D049A0
:100D200008310860D048406820F47020CE494860FF
:100D30000846406840F4803048600846C06840F487
:100D40008050C8600846006820F00F000860084620
:100D5000006840F0010008600846C06840F00100EB
:100D6000C860C248006820F00F00C049086008460B
:100D7000006840F002000860BC480C30006820F0B9
:100D80000100BA490C310860704700F0010141B11F
:100D9000B3490C31096841F48041B14A0C32116009
:100DA00007E0AF491031096841F48041AC4A103284
:100DB000116000F0020141B1A9490C31096841F408
:100DC0000041A74A0C32116007E0A54910310968BB
:100DD00041F40041A24A1032116000F0040141B117
:100DE0009F490C31096841F001019D4A0C321160A4
:100DF00007E09B491031096841F00101984A10321F
:100E0000116000F0080141B195490C31096841F0C9
:100E10000201934A0C32116007E0914910310968D0
:100E200041F002018E4A1032116000F0100141B110
:100E30008C491031096841F080018A4A10321160F2
:100E400007E088491431096841F08001854A14326D
:100E5000116000F0200141B182491031096841F46C
:100E60008071804A1032116007E07E4914310968B0
:100E700041F480717B4A1432116000F0400141B1AD
:100E800078491031096841F40071764A10321160D6
:100E900007E074491431096841F40071714A143251
:100EA000116000F0800141B16E491031096841F4D0
:100EB00080616C4A1032116007E06A491431096898
:100EC00041F48061674A1432116000F4807141B1CD
:100ED00064491031096841F40061624A10321160BE
:100EE00007E060491431096841F400615D4A143239
:100EF000116000F4007141B15A491031096841F4A0
:100F00008051584A1032116007E05649143109687F
:100F100041F48051534A1432116000F4806141B1B0
:100F200050491031096841F400514E4A10321160A5
:100F300007E04C491431096841F40051494A143220
:100F4000116000F4006141B146491031096841F473
:100F50008041444A1032116007E042491431096867
:100F600041F480413F4A1432116000F4805141B194
:100F70003C491031096841F400413A4A103211608D
:100F800007E038491431096841F40041354A143208
:100F9000116000F4005141B131490C31096841F44C
:100FA00080712F4A0C32116007E02D491031096819
:100FB00041F480712A4A1032116000F4804141B13D
:100FC00027490C31096841F40071254A0C3211603F
:100FD00007E023491031096841F40071204A1032BA
:100FE000116000F4004141B11D490C31096841F420
:100FF00080611B4A0C32116007E019491031096801
:1010000041F48061164A10321160704700B5034602
:101010001548C06820F001001349C8600846C06840
:1010200020F48050C8600E480830006820F020008E
:101030000B49083108601846FFF7A7FE084808303A
:10104000006840F020000649083108600648C06882
:1010500040F480500449C86000BD00000010024008
:10106000041401400018014000200140000C014020
:1010700000B50346FE48C06840F00100FC49C86066
:101080000846C06820F48050C860FA48006820F024
:101090002000F84908601846FFF777FEF548006819
:1010A00040F02000F3490860F148C06840F48050E7
:1010B000EF49C86000BD30B505462A20FFF7A6FFFE
:1010C0000020FFF7D5FF0020FFF7D2FF0120FFF738
:1010D000CFFF40F23F10FFF7CBFF2B20FFF796FF2B
:1010E0000020FFF7C5FF0020FFF7C2FF0120FFF738
:1010F000BFFF40F2DF10FFF7BBFF2C20FFF786FF9A
:10110000002403E02846FFF7B3FF641CB4F5163F44
:10111000F8D330BD10B5FFF7A5FDCF20FFF776FF60
:101120000020FFF7A5FF8320FFF7A2FF3020FFF785
:101130009FFFED20FFF76AFF6420FFF799FF032070
:10114000FFF796FF1220FFF793FF8120FFF790FF34
:10115000E820FFF75BFF8520FFF78AFF0120FFF7FC
:1011600087FF7920FFF784FFCB20FFF74FFF39205F
:10117000FFF77EFF2C20FFF77BFF0020FFF778FFB3
:101180003420FFF775FF0220FFF772FFF720FFF70B
:101190003DFF2020FFF76CFFEA20FFF737FF00201C
:1011A000FFF766FF0020FFF763FFC020FFF72EFF69
:1011B0001D20FFF75DFFC120FFF728FF1120FFF77B
:1011C00057FFC520FFF722FF3320FFF751FF3420E0
:1011D000FFF74EFFC720FFF719FFBE20FFF748FFBC
:1011E0003620FFF713FF0020FFF742FFB120FFF783
:1011F0000DFF0020FFF73CFF1B20FFF739FFB62053
:10120000FFF704FF0A20FFF733FFA220FFF730FFAC
:10121000F220FFF7FBFE0020FFF72AFF2620FFF752
:10122000F5FE0120FFF724FFE020FFF7EFFE0F207F
:10123000FFF71EFF2320FFF71BFF1F20FFF718FFFC
:101240000920FFF715FF0F20FFF712FF0820FFF717
:101250000FFF4B20FFF70CFFF220FFF709FF3820AC
:10126000FFF706FF0920FFF703FF1320FFF700FF3A
:101270000320FFF7FDFE1220FFF7FAFE0720FFF71D
:10128000F7FE0420FFF7F4FEE120FFF7BFFE002089
:10129000FFF7EEFE1D20FFF7EBFE2020FFF7E8FE34
:1012A0000220FFF7E5FE1120FFF7E2FE0720FFF71F
:1012B000DFFE3420FFF7DCFE8120FFF7D9FE462059
:1012C000FFF7D6FE0620FFF7D3FE0E20FFF7D0FE75
:1012D0000C20FFF7CDFE3220FFF7CAFE3820FFF7C3
:1012E000C7FE0F20FFF7C4FE3A20FFF78FFE552000
:1012F000FFF7BEFE1120FFF789FE4FF49670FFF74F
:1013000071FC2920FFF782FE4FF6FF70FFF7D3FE36
:101310005948006840F001005749086010BD70B599
:1013200005460C4616462A20FFF770FE2812FFF7E6
:101330009FFE2846FFF79CFE2812FFF799FE2846DD
:10134000FFF796FE2B20FFF761FE2012FFF790FEBD
:101350002046FFF78DFE2012FFF78AFE2046FFF79A
:1013600087FE2C20FFF752FE3046FFF781FE70BD4E
:101370002DE9F04F89B00646894693469A460024E7
:101380005D46584600F0BEF9074600223B4B00F090
:10139000CFFACDE9060100F0DBF8089099E01FFADA
:1013A0008AF209EB050399B2331998B2FFF7B7FF38
:1013B0001FFA8AF2A9EB050399B2331998B2FFF725
:1013C000AEFF1FFA8AF209EB050399B2331B98B2FC
:1013D000FFF7A5FF1FFA8AF2A9EB050399B2331BA9
:1013E00098B2FFF79CFF1FFA8AF209EB040399B247
:1013F000731998B2FFF793FF1FFA8AF2A9EB04035F
:1014000099B2731998B2FFF78AFF1FFA8AF209EBB3
:10141000040399B2731B98B2FFF781FF1FFA8AF297
:10142000A9EB040399B2731B98B2FFF778FF002170
:10143000089800F003FD2BD2204600F063F900224B
:101440004FF08043CDE9000100F074F900220C4B0D
:10145000CDE9020100F0AEF807468846089800F092
:101460005DFB3A464346CDE9040100F0A3F809E0EC
:10147000002001400C1401400C0C01400000F43F1E
:1014800000000840CDE9060100F062F808901FE076
:10149000601B00F037F900224FF08043CDE90001D6
:1014A00000F048F9074600220D4B00F083F8CDE923
:1014B0000401089800F032FBCDE90201DDE90423C4
:1014C00000F078F8CDE9060100F042F808906D1EB2
:1014D000641CAC427FF763AF09B0BDE8F08F000039
:1014E000000014407047704770477047754600F021
:1014F0002BF8AE4605006946534620F007008546A6
:1015000018B020B5FEF760FFBDE820404FF00006A0
:101510004FF000074FF000084FF0000B21F00701DB
:10152000AC46ACE8C009ACE8C009ACE8C009ACE81E
:10153000C0098D46704710B50446AFF300802046C1
:10154000BDE81040FEF73BBE004870471C0000207D
:1015500021F00042A2F16052B2F5801F01F0004379
:1015600028BFD2F17F6C0BD95FEA001C43EAC202AC
:1015700042EB507018BF704728BF20F00100704741
:10158000B2F5801FBCBF184670474FEA410C1CF5EE
:10159000001F02D2084600F04CBD70B500F074F98F
:1015A00000000089FFF7F6BF4FF00040A0F5800073
:1015B0007047000010B591EA030F48BF83F0004365
:1015C00000F1CA81841A71EB030C05D2121943EBA6
:1015D0000C03001B61EB0C01DFF824E14FEA11540E
:1015E000A4EB135C1EEA430F18BF9EEA445F73D05E
:1015F00023EA0E03DCF1200E21EA045143F48013A8
:1016000032D322FA0CFE10EB0E0023FA0CFE41EB53
:101610000E01CCF1200E03FA0EFE10EB0E0051F17C
:101620000001B1F5801FCCF1200E32D201EB045144
:1016300012FA0EF2BDE8104058BF7047401C38BF88
:101640005FEA420218BF7047002814BF20F0010073
:1016500041F100014FEA410313F5001F38BF704705
:10166000A1F1C04100F05EB9012A43EB0302ACF1E5
:10167000200CDCF11F0E32BF4FF0000E23FA0CF3EA
:1016800010EB030041EB0451B4EB115FD0D0A1EBA0
:10169000045101F5801149085FEA300001EB045163
:1016A0000ED350F1000038BF12FA0EFE08D1BDE88B
:1016B0001040C9E7401C38BF5FEA4202CAD1C3E705
:1016C000BDE810404FEA410313F5001F38BF7047D3
:1016D000A1F1C04100F026B99EEA445F08D011EAAA
:1016E0005E0FBDE8104004BF01F0004100207047CC
:1016F000BDE8104070B500F0C7F800BF64FBBE3E07
:101700000000E0FF10F0004248BF4042B0FA80F312
:1017100010FA03F10AD0C3F11D0303F580634FEA09
:10172000415002EB035202EBD12170474FF0000011
:1017300070470000DFF848C170B51CEA111E1EBFDB
:101740001CEA13159EEA0C0F95EA0C0F00F06F804F
:1017500081EA030423EA4C134EEAD47E21EA4C11B9
:1017600041F4801143F48013AE44A1FB024CA0FB72
:101770000365AEF17F7E361955EB0C05A1FB034CDA
:101780004CF10003A0FB021C16EB0C06654153F163
:101790000003094218BF46F0010613F4007F0BD185
:1017A0004FEA03314FEA0530340341EA155140EA6C
:1017B00016506FF003020AE04FEAC3214FEAC5203A
:1017C000F40241EA555140EA56506FF0020202EB32
:1017D0002E4201EB025585EACE710AD05FEA440C35
:1017E00018BF24F0004450F1000041F1000120EA4C
:1017F000D47040F2FE7C624500D270BDA84214BF96
:101800004FF080444FF04044002E08BF0024BEF14A
:10181000806FA8BFA1F1C041BDE8704080F2828016
:101820004FF0000001F1C04101F0004170479EEA15
:101830000C0F0CEA131518BF95EA0C0F06D04FF0E9
:10184000000081EA030E0EF0004170BD00F01CF8AC
:101850008900013E00F007B800F009B84FEA430CD8
:101860005FEA5C5C08D081EA030100F05BB84FEAF4
:10187000410C5FEA5C5CF6D14FF000000149704713
:101880000000FF070000F87F0EF1020E2EF0030E9D
:101890005EF8046B364205D4012A43EB030515F5C7
:1018A000001F12D8012841EB010C1CF5001F0CD8B9
:1018B0000ED14FEAD17C15F5001F0CEB4C0C0CF14E
:1018C000020C08BF4CEBD37C04E04FF0080C01E0A5
:1018D0004FEAD37C0CEB4C0526FA05F606F007061A
:1018E000B6F1040C06D20EEB860CBDE870404CF04D
:1018F000010C6047DFE80CF0090B02024FF00041D9
:101900004FF00000A1F5002170BD194610460128D6
:1019100051EB010418BFD4F5001484BF002001F07E
:10192000004170BD0808A0F500114FEA3101704771
:1019300091EA030F10B581F000413FF543AE83F00B
:10194000004300F009B8000010B591EA030F48BF4A
:1019500083F000433FF536AE841A71EB030C07D2D7
:1019600012198CF0004C43EB0C03001B61EB0C01D3
:10197000DFF8A4E14FEA1154A4EB135C1EEA430F15
:1019800018BF9EEA445F00F0B08023EA6E03524223
:1019900021EA0451C3EB6E0338BF5B1EDCF1200E5D
:1019A00025D322FA0CFE10EB0E0043FA0CFE41EB9D
:1019B0000E01CCF1200E03FA0EFE10EB0E0051F1D9
:1019C0000001CCF1200E29D412FA0EF201EB0451E1
:1019D000BDE8104058BF7047401C1CBFB2F1004F1B
:1019E000704700280CBF491C20F00100704712EB23
:1019F000020E43EB030218BF4FF0010E4EEA420203
:101A0000ACF1200CDCF11E0E54D943FA0CFE10EBA5
:101A10000E0051F1FF31CCF11E0ED5D50EF1010EA5
:101A200012FA0EFE404141EB010101EB445C5FEA1A
:101A30005C5C10D910EBDE7001EB045138BFBEF1D5
:101A4000004FBDE8104018BF704700280CBF491C6C
:101A500020F00100704730D24FEAD42C11F500116C
:101A600024F400641BD0B1FA81F20B3AA41AA41E2C
:101A7000D2F12003914030FA03F31943904001EB77
:101A8000CC71002C01EB0451BDE81040A8BF704799
:101A900001F1C0414FF0000001F000417047B0FA81
:101AA00080F310FA03F100D110BDE41A173C480589
:101AB000C90AE4E701EB045110BD491001EB0451E0
:101AC000BDE810404FEA300002E04FF000017047DF
:101AD0004A0008BF0042F8D0B2F5001F28BF704787
:101AE00001F000414FF0000070479EEA445F07D0CC
:101AF00011EA5E0FBDE8104004BF002100207047CE
:101B0000BDE8104070B5FFF7BFFE00BF40DFF63EF6
:101B100083F00041104670470000E0FF43004FEAA9
:101B2000D30C4FEA3C0C43401FBF40070CF16051FF
:101B300013F0FE4F70471CF0006F03D100200CF033
:101B4000004170470CF0004343EA507010B540EA82
:101B5000CC0000F028FA00BF000000924FEA00011C
:101B6000FFF7E0BE4FF000414FF00000A1F500216B
:101B70007047000090EA010F48BF81F0004100F17A
:101B80006E82421A3CBF801A89184FEAD0524FF039
:101B90007F4C1CEA410FA2EBD15318BF9CEA026FA5
:101BA00000F03B804FF0004C4CEA00204CEA012151
:101BB00021FA03FC10EB0C0C1ED202F1FF325FEA9B
:101BC0001C2040EBC25038BF70471CF07F0F4FEA1B
:101BD000400C18BFBCF17F4F38BF7047C3F12003E2
:101BE000994008BF20F00100BCF17F4F38BF70471B
:101BF000A0F1C04000F01DBA4FEA3C00000A40EBE3
:101C0000C25028BF1CF0FF0F4FEA400CE6D018BFAF
:101C1000BCF17F4F38BF7047EAE79CEA026F05D0FE
:101C200010EA5C0F08BF00F00040704710B500F0EC
:101C3000BAF900BF64FBBE3E401058BFC0F140403F
:101C4000491058BFC1F140418142EFF30080704715
:101C50004FF47F0C1CEAD0121EBF1CEAD11392EA8B
:101C60000C0F93EA0C0F00F0858090EA010F48BF3B
:101C700042F4807240F4000C41F400002CF07F41EB
:101C800020F07F4000B58142A2EB03020FF2081C56
:101C9000ACEB504EC0F100009EF800E04FEA4E0E53
:101CA00000FB0EFC38BF49004FEA2C1C02F5FA027B
:101CB0000CFB0EF34FEACE1E4FEA112C4FEAC12166
:101CC0000EEB635E42EB22420EFB0CFC4FEA1C5310
:101CD00000FB03114FEA112C4FEA01310EFB0CFC03
:101CE0004FEADC4C00FB0C11C14228BF09184CEB39
:101CF00003335DF804EB10EB410143EBC250B2F546
:101D00007C0F38BF704729D512F0F00F1CBF00F1CF
:101D1000C04000F000407047008182838485868740
:101D200088898B8C8D8E8F919293959697999A9C9A
:101D30009D9FA0A2A3A5A7A8AAACAEB0B2B3B5B709
:101D4000B9BCBEC0C2C5C7C9CCCED1D4D7D9DCDFDF
:101D5000E2E6E9ECF0F3F7FAFE0000004FEA400C8F
:101D60000CF1807CBCF17E4F28BF7047B0F1C040C1
:101D700000F05FB990EA010F0CEAD11348BF42F4BA
:101D80008072624538BF634507D213F47F0F16D0C7
:101D900080EA010000F00040704710B500F003F940
:101DA000097EFC3E00F005B880EA010000F000402A
:101DB000704780EA010000F0004000F03AB912F4E8
:101DC0007F0F04BF0248704780EA010000F031B97C
:101DD0000000C07F41000B0ED3F19E0208D950F4E1
:101DE00000034FEA032323FA02F048BF4042704742
:101DF00010B500F0D8F800BF499224800020704749
:101E00006FF0004282EA20007047000010F00041AD
:101E100048BF4042B0FA80F310FA03F2C3F19D03C9
:101E20000BD051EAC35101EB1220530638BF704763
:101E300000F1010008BF20F00100704750EA010CDA
:101E400000F113801CF5000F58BFBCF5000F01D442
:101E50008842704707D710F5000F58BF11F5000FE3
:101E600015D488427047894270471CF5000F04D58D
:101E7000BCF5000FF7D5814270474FF0807C1CEB1A
:101E8000400F38BF1CEB410F01D28142704710B5A3
:101E900000F089F8922449004FF000504FF0805133
:101EA000FFF7CABE4FF47F0C1CEAD0121EBF1CEA1B
:101EB000D11392EA0C0F93EA0C0F00F0478090EADE
:101EC000010F48BF42F480724FF0004C4CEA0020F2
:101ED0004CEA012102EB0302A0FB0113A2F5000270
:101EE000002918BF43F001035B0028BF4FEA33030A
:101EF00042EB22425FEA132C4CEBC2502EBFBCEBEC
:101F0000436FB2F57C0F70474FEA036CBCF1004F92
:101F100008BF20F00100B2F57C0F38BF70470BD529
:101F200082F0FF0212F5803FC8BF704700F1C04049
:101F3000D8BF00F00040704700F5000C5FEA4C0C81
:101F400048BF7047B0F1C04000F073B890EA010F8D
:101F50000CEAD11348BF42F48072624538BF634532
:101F600004D280EA010000F00040704710B500F094
:101F70001AF800BF8900013E00F007B800F009B868
:101F80005FEA410C5FEA1C6C08D080EA010000F0B7
:101F900050B85FEA400C5FEA1C6CF6D14FF000408D
:101FA000A0F5800070470EF1020E2EF0030E5EF8D1
:101FB000044B244204D44FEA4102B2F17F4F11D8BE
:101FC0004FEA4003B3F17F4F0CD80ED14FEAD07CDB
:101FD000B2F17F4F0CEB4C0C0CF1020C08BF4CEB38
:101FE000D17C04E04FF0080C01E04FEAD17C0CEB0F
:101FF0004C0324FA03F404F00704B4F1040C06D2F1
:102000000EEB840CBDE810404CF0010C6047DFE89B
:102010000CF0070802024FF00040A0F5800010BD50
:102020000846420018BFD2F1807288BF00F000401D
:1020300010BDFF2141EAD050C005704780F000403C
:1020400090EA010F7FF59DAD81F0004100F007B8E7
:1020500090EA010F48BF81F000413FF592AD421A6E
:1020600004D882F00042A0EB020011444FEAD052A3
:102070004FF07F4C1CEA410FA2EBD15318BF9CEAF2
:10208000026F4AD04FF0004C4CEA00204CEA01218C
:1020900021FA03FCB0EB0C0C0FD412F0FE0F36D07B
:1020A0005FEA4C001DD5001240EBC25038BF7047AC
:1020B0001CF03F0F18BF70470BE0A2F101025FEA6E
:1020C0001C2040EBC25038BF70471CF07F0F18BF78
:1020D0007047C3F12003994014BF401E20F0010057
:1020E000704780084FEA122308BF7047B0FA80FC9F
:1020F000A2EB0C02CCF1280C60FA0CF093EA122F40
:1021000004BF00EBC25070474FEAC3707047130A18
:102110005FEADC1008BF7047F6E79CEA026F04D064
:1021200010EA5C0F08BF0020704710B5FFF73BFFB7
:1021300040DFF63E81F00040704700005C2100085F
:10214000000000201C0000006C010008782100083D
:102150001C000020640600008801000800A24A0458
:102160000000000000000000010203040607080947
:08217000010000002823090012
:0400000508000131BD
:00000001FF
